{
  "address": "0xE07f02ff153d2e4F20cEbcEe7C3478243Bab442f",
  "abi": [
    {
      "inputs": [
        {
          "internalType": "address",
          "name": "_tokenUp",
          "type": "address"
        },
        {
          "internalType": "address",
          "name": "_tokenDown",
          "type": "address"
        },
        {
          "internalType": "address",
          "name": "_receiver",
          "type": "address"
        }
      ],
      "stateMutability": "nonpayable",
      "type": "constructor"
    },
    {
      "inputs": [],
      "name": "ContractPaused",
      "type": "error"
    },
    {
      "inputs": [],
      "name": "EmptyURL",
      "type": "error"
    },
    {
      "inputs": [],
      "name": "InsufficientPayment",
      "type": "error"
    },
    {
      "inputs": [],
      "name": "InvalidRatingAmount",
      "type": "error"
    },
    {
      "inputs": [
        {
          "internalType": "string",
          "name": "url",
          "type": "string"
        }
      ],
      "name": "MarketAlreadyExists",
      "type": "error"
    },
    {
      "inputs": [
        {
          "internalType": "address",
          "name": "owner",
          "type": "address"
        }
      ],
      "name": "OwnableInvalidOwner",
      "type": "error"
    },
    {
      "inputs": [
        {
          "internalType": "address",
          "name": "account",
          "type": "address"
        }
      ],
      "name": "OwnableUnauthorizedAccount",
      "type": "error"
    },
    {
      "inputs": [],
      "name": "ReentrancyGuardReentrantCall",
      "type": "error"
    },
    {
      "inputs": [
        {
          "internalType": "address",
          "name": "token",
          "type": "address"
        }
      ],
      "name": "SafeERC20FailedOperation",
      "type": "error"
    },
    {
      "inputs": [],
      "name": "ZeroAddress",
      "type": "error"
    },
    {
      "anonymous": false,
      "inputs": [
        {
          "indexed": true,
          "internalType": "address",
          "name": "marketAddress",
          "type": "address"
        },
        {
          "indexed": false,
          "internalType": "string",
          "name": "url",
          "type": "string"
        }
      ],
      "name": "MarketCreated",
      "type": "event"
    },
    {
      "anonymous": false,
      "inputs": [
        {
          "indexed": true,
          "internalType": "address",
          "name": "previousOwner",
          "type": "address"
        },
        {
          "indexed": true,
          "internalType": "address",
          "name": "newOwner",
          "type": "address"
        }
      ],
      "name": "OwnershipTransferStarted",
      "type": "event"
    },
    {
      "anonymous": false,
      "inputs": [
        {
          "indexed": true,
          "internalType": "address",
          "name": "previousOwner",
          "type": "address"
        },
        {
          "indexed": true,
          "internalType": "address",
          "name": "newOwner",
          "type": "address"
        }
      ],
      "name": "OwnershipTransferred",
      "type": "event"
    },
    {
      "anonymous": false,
      "inputs": [
        {
          "indexed": false,
          "internalType": "bool",
          "name": "isPaused",
          "type": "bool"
        }
      ],
      "name": "Paused",
      "type": "event"
    },
    {
      "anonymous": false,
      "inputs": [
        {
          "indexed": true,
          "internalType": "address",
          "name": "user",
          "type": "address"
        },
        {
          "indexed": true,
          "internalType": "address",
          "name": "market",
          "type": "address"
        },
        {
          "indexed": false,
          "internalType": "uint256",
          "name": "amount",
          "type": "uint256"
        }
      ],
      "name": "RatingDownCreated",
      "type": "event"
    },
    {
      "anonymous": false,
      "inputs": [
        {
          "indexed": true,
          "internalType": "address",
          "name": "user",
          "type": "address"
        },
        {
          "indexed": true,
          "internalType": "address",
          "name": "market",
          "type": "address"
        },
        {
          "indexed": false,
          "internalType": "uint256",
          "name": "amount",
          "type": "uint256"
        }
      ],
      "name": "RatingUpCreated",
      "type": "event"
    },
    {
      "anonymous": false,
      "inputs": [
        {
          "indexed": true,
          "internalType": "address",
          "name": "newReceiver",
          "type": "address"
        }
      ],
      "name": "ReceiverUpdated",
      "type": "event"
    },
    {
      "inputs": [],
      "name": "MIN_RATING_AMOUNT",
      "outputs": [
        {
          "internalType": "uint256",
          "name": "",
          "type": "uint256"
        }
      ],
      "stateMutability": "view",
      "type": "function"
    },
    {
      "inputs": [],
      "name": "SEED",
      "outputs": [
        {
          "internalType": "string",
          "name": "",
          "type": "string"
        }
      ],
      "stateMutability": "view",
      "type": "function"
    },
    {
      "inputs": [],
      "name": "VERSION",
      "outputs": [
        {
          "internalType": "string",
          "name": "",
          "type": "string"
        }
      ],
      "stateMutability": "view",
      "type": "function"
    },
    {
      "inputs": [],
      "name": "acceptOwnership",
      "outputs": [],
      "stateMutability": "nonpayable",
      "type": "function"
    },
    {
      "inputs": [
        {
          "components": [
            {
              "internalType": "string",
              "name": "url",
              "type": "string"
            },
            {
              "internalType": "uint256",
              "name": "amount",
              "type": "uint256"
            }
          ],
          "internalType": "struct ImmutableRatings.MarketRating",
          "name": "rating",
          "type": "tuple"
        }
      ],
      "name": "createDownRating",
      "outputs": [],
      "stateMutability": "payable",
      "type": "function"
    },
    {
      "inputs": [
        {
          "internalType": "string",
          "name": "url",
          "type": "string"
        }
      ],
      "name": "createMarket",
      "outputs": [],
      "stateMutability": "nonpayable",
      "type": "function"
    },
    {
      "inputs": [
        {
          "components": [
            {
              "internalType": "string",
              "name": "url",
              "type": "string"
            },
            {
              "internalType": "uint256",
              "name": "amount",
              "type": "uint256"
            }
          ],
          "internalType": "struct ImmutableRatings.MarketRating",
          "name": "rating",
          "type": "tuple"
        }
      ],
      "name": "createUpRating",
      "outputs": [],
      "stateMutability": "payable",
      "type": "function"
    },
    {
      "inputs": [
        {
          "internalType": "string",
          "name": "url",
          "type": "string"
        }
      ],
      "name": "getMarketAddress",
      "outputs": [
        {
          "internalType": "address",
          "name": "",
          "type": "address"
        }
      ],
      "stateMutability": "pure",
      "type": "function"
    },
    {
      "inputs": [
        {
          "internalType": "address",
          "name": "user",
          "type": "address"
        }
      ],
      "name": "getUserRatings",
      "outputs": [
        {
          "internalType": "uint256",
          "name": "total",
          "type": "uint256"
        }
      ],
      "stateMutability": "view",
      "type": "function"
    },
    {
      "inputs": [],
      "name": "isPaused",
      "outputs": [
        {
          "internalType": "bool",
          "name": "",
          "type": "bool"
        }
      ],
      "stateMutability": "view",
      "type": "function"
    },
    {
      "inputs": [
        {
          "internalType": "address",
          "name": "market",
          "type": "address"
        }
      ],
      "name": "marketToUrl",
      "outputs": [
        {
          "internalType": "string",
          "name": "url",
          "type": "string"
        }
      ],
      "stateMutability": "view",
      "type": "function"
    },
    {
      "inputs": [],
      "name": "owner",
      "outputs": [
        {
          "internalType": "address",
          "name": "",
          "type": "address"
        }
      ],
      "stateMutability": "view",
      "type": "function"
    },
    {
      "inputs": [],
      "name": "pendingOwner",
      "outputs": [
        {
          "internalType": "address",
          "name": "",
          "type": "address"
        }
      ],
      "stateMutability": "view",
      "type": "function"
    },
    {
      "inputs": [
        {
          "internalType": "uint256",
          "name": "amount",
          "type": "uint256"
        }
      ],
      "name": "previewPayment",
      "outputs": [
        {
          "internalType": "uint256",
          "name": "",
          "type": "uint256"
        }
      ],
      "stateMutability": "view",
      "type": "function"
    },
    {
      "inputs": [],
      "name": "ratingPrice",
      "outputs": [
        {
          "internalType": "uint256",
          "name": "",
          "type": "uint256"
        }
      ],
      "stateMutability": "view",
      "type": "function"
    },
    {
      "inputs": [],
      "name": "receiver",
      "outputs": [
        {
          "internalType": "address",
          "name": "",
          "type": "address"
        }
      ],
      "stateMutability": "view",
      "type": "function"
    },
    {
      "inputs": [
        {
          "internalType": "address",
          "name": "tokenAddress",
          "type": "address"
        },
        {
          "internalType": "address",
          "name": "recipient",
          "type": "address"
        }
      ],
      "name": "recoverERC20",
      "outputs": [],
      "stateMutability": "nonpayable",
      "type": "function"
    },
    {
      "inputs": [],
      "name": "renounceOwnership",
      "outputs": [],
      "stateMutability": "nonpayable",
      "type": "function"
    },
    {
      "inputs": [
        {
          "internalType": "bool",
          "name": "_isPaused",
          "type": "bool"
        }
      ],
      "name": "setIsPaused",
      "outputs": [],
      "stateMutability": "nonpayable",
      "type": "function"
    },
    {
      "inputs": [
        {
          "internalType": "address",
          "name": "_receiver",
          "type": "address"
        }
      ],
      "name": "setReceiver",
      "outputs": [],
      "stateMutability": "nonpayable",
      "type": "function"
    },
    {
      "inputs": [],
      "name": "tokenDown",
      "outputs": [
        {
          "internalType": "contract TDN",
          "name": "",
          "type": "address"
        }
      ],
      "stateMutability": "view",
      "type": "function"
    },
    {
      "inputs": [],
      "name": "tokenUp",
      "outputs": [
        {
          "internalType": "contract TUP",
          "name": "",
          "type": "address"
        }
      ],
      "stateMutability": "view",
      "type": "function"
    },
    {
      "inputs": [
        {
          "internalType": "address",
          "name": "newOwner",
          "type": "address"
        }
      ],
      "name": "transferOwnership",
      "outputs": [],
      "stateMutability": "nonpayable",
      "type": "function"
    },
    {
      "inputs": [
        {
          "internalType": "string",
          "name": "url",
          "type": "string"
        }
      ],
      "name": "urlToMarket",
      "outputs": [
        {
          "internalType": "address",
          "name": "market",
          "type": "address"
        }
      ],
      "stateMutability": "view",
      "type": "function"
    }
  ],
  "transactionHash": "0xa668535c34af37f696f4eb1da45bd8c98c830c7c8961a6a24fa3df94e131d141",
  "args": [
    "0xE6D3d08a6519F1346344bba0F25A6fE7aB50F06C",
    "0x4461a66A7B5eCdBBE0bbBf09b41816f94c4834b2",
    "0xc1Ec5b421905290F477C741ADf97c062921AA18A"
  ],
  "numDeployments": 1,
  "solcInputHash": "d7650786dfb4ed1dec321014e91221ba",
  "bytecode": "0x60c060405264104c533c006003556004805460ff60a01b191690553480156200002757600080fd5b5060405162001816380380620018168339810160408190526200004a916200018c565b33806200007157604051631e4fbdf760e01b81526000600482015260240160405180910390fd5b6200007c8162000101565b5060016002556001600160a01b0383161580620000a057506001600160a01b038216155b80620000b357506001600160a01b038116155b15620000d25760405163d92e233d60e01b815260040160405180910390fd5b6001600160a01b0392831660805290821660a052600480546001600160a01b03191691909216179055620001d6565b600180546001600160a01b03191690556200011c816200011f565b50565b600080546001600160a01b038381166001600160a01b0319831681178455604051919092169283917f8be0079c531659141344cd1fd0a4f28419497f9722a3daafe3b4186f6b6457e09190a35050565b80516001600160a01b03811681146200018757600080fd5b919050565b600080600060608486031215620001a257600080fd5b620001ad846200016f565b9250620001bd602085016200016f565b9150620001cd604085016200016f565b90509250925092565b60805160a0516115fe6200021860003960008181610395015281816109b30152610ebe0152600081816102c101528181610a3f0152610b7101526115fe6000f3fe60806040526004361061018b5760003560e01c80638da5cb5b116100d6578063e30c39781161007f578063f7260d3e11610059578063f7260d3e146104ba578063fbd8cc4c146104da578063ffa1ad74146104f057600080fd5b8063e30c39781461045c578063f2fde38b1461047a578063f50336f91461049a57600080fd5b8063a00c582e116100b0578063a00c582e146103f8578063b187bd2614610418578063c4baaa9f1461044957600080fd5b80638da5cb5b146103655780639c25cc62146103835780639f8472d4146103b757600080fd5b806354888f5511610138578063718da7ee11610112578063718da7ee1461031057806379ba509714610330578063886f039a1461034557600080fd5b806354888f551461028f5780636bfc5c6e146102af578063715018a6146102fb57600080fd5b806323da93171161016957806323da93171461023a578063240976bf1461024f57806350a1a8681461026f57600080fd5b806303994dc5146101905780630edc4737146101c657806317da760a1461020f575b600080fd5b34801561019c57600080fd5b506101b06101ab3660046110f3565b610539565b6040516101bd9190611132565b60405180910390f35b3480156101d257600080fd5b506101b06040518060400160405280601d81526020017f496d6d757461626c655f526174696e67735f62795f474d5f45425f4d4200000081525081565b34801561021b57600080fd5b5061022c683635c9adc5dea0000081565b6040519081526020016101bd565b61024d610248366004611165565b6105d3565b005b34801561025b57600080fd5b5061024d61026a3660046111a0565b610633565b34801561027b57600080fd5b5061022c61028a3660046111c2565b6106ae565b34801561029b57600080fd5b5061024d6102aa3660046111db565b6106bf565b3480156102bb57600080fd5b506102e37f000000000000000000000000000000000000000000000000000000000000000081565b6040516001600160a01b0390911681526020016101bd565b34801561030757600080fd5b5061024d61075a565b34801561031c57600080fd5b5061024d61032b3660046110f3565b61076e565b34801561033c57600080fd5b5061024d6107c0565b34801561035157600080fd5b5061024d61036036600461124d565b610801565b34801561037157600080fd5b506000546001600160a01b03166102e3565b34801561038f57600080fd5b506102e37f000000000000000000000000000000000000000000000000000000000000000081565b3480156103c357600080fd5b506102e36103d2366004611296565b80516020818301810180516006825292820191909301209152546001600160a01b031681565b34801561040457600080fd5b506102e36104133660046111db565b6108c7565b34801561042457600080fd5b5060045461043990600160a01b900460ff1681565b60405190151581526020016101bd565b61024d610457366004611165565b6108da565b34801561046857600080fd5b506001546001600160a01b03166102e3565b34801561048657600080fd5b5061024d6104953660046110f3565b610920565b3480156104a657600080fd5b5061022c6104b53660046110f3565b610991565b3480156104c657600080fd5b506004546102e3906001600160a01b031681565b3480156104e657600080fd5b5061022c60035481565b3480156104fc57600080fd5b506101b06040518060400160405280600581526020017f312e302e3000000000000000000000000000000000000000000000000000000081525081565b6005602052600090815260409020805461055290611347565b80601f016020809104026020016040519081016040528092919081815260200182805461057e90611347565b80156105cb5780601f106105a0576101008083540402835291602001916105cb565b820191906000526020600020905b8154815290600101906020018083116105ae57829003601f168201915b505050505081565b6105db610ab4565b600454600160a01b900460ff16156106065760405163ab35696f60e01b815260040160405180910390fd5b61060f81610adc565b6106193382610b29565b6106268160200135610c25565b6106306001600255565b50565b61063b610c6e565b60048054821515600160a01b027fffffffffffffffffffffff00ffffffffffffffffffffffffffffffffffffffff9091161790556040517f0e2fb031ee032dc02d8011dc50b816eb450cf856abd8261680dac74f72165bd2906106a390831515815260200190565b60405180910390a150565b60006106b982610c9b565b92915050565b600454600160a01b900460ff16156106ea5760405163ab35696f60e01b815260040160405180910390fd5b60006001600160a01b031660068383604051610707929190611381565b908152604051908190036020019020546001600160a01b03161461074b5781816040516337afdd7160e01b8152600401610742929190611391565b60405180910390fd5b6107558282610cbe565b505050565b610762610c6e565b61076c6000610d70565b565b610776610c6e565b600480546001600160a01b0319166001600160a01b0383169081179091556040517f75fd3aa5d9b6e2a8a9d8894008c9263200713f4b1fa9113665e09ceac002774690600090a250565b60015433906001600160a01b031681146107f85760405163118cdaa760e01b81526001600160a01b0382166004820152602401610742565b61063081610d70565b610809610c6e565b6001600160a01b038216158061082657506001600160a01b038116155b156108445760405163d92e233d60e01b815260040160405180910390fd5b6040516370a0823160e01b81523060048201526108c39082906001600160a01b038516906370a0823190602401602060405180830381865afa15801561088e573d6000803e3d6000fd5b505050506040513d601f19601f820116820180604052508101906108b291906113c0565b6001600160a01b0385169190610d89565b5050565b60006108d38383610df0565b9392505050565b6108e2610ab4565b600454600160a01b900460ff161561090d5760405163ab35696f60e01b815260040160405180910390fd5b61091681610adc565b6106193382610e7b565b610928610c6e565b600180546001600160a01b0383166001600160a01b031990911681179091556109596000546001600160a01b031690565b6001600160a01b03167f38d16b8cac22d99fc7c124b9cd0de2d3fa1faef420bfe791d8c362d765e2270060405160405180910390a350565b6040516324abc0b960e01b81526001600160a01b0382811660048301526000917f0000000000000000000000000000000000000000000000000000000000000000909116906324abc0b990602401602060405180830381865afa1580156109fc573d6000803e3d6000fd5b505050506040513d601f19601f82011682018060405250810190610a2091906113c0565b60405163daf4906d60e01b81526001600160a01b0384811660048301527f0000000000000000000000000000000000000000000000000000000000000000169063daf4906d90602401602060405180830381865afa158015610a86573d6000803e3d6000fd5b505050506040513d601f19601f82011682018060405250810190610aaa91906113c0565b6106b991906113ef565b6002805403610ad657604051633ee5aeb560e01b815260040160405180910390fd5b60028055565b610af2670de0b6b3a76400006020830135611418565b151580610b0b5750683635c9adc5dea000008160200135105b156106305760405163a31fbaaf60e01b815260040160405180910390fd5b6000610b3d610b38838061142c565b610f65565b604051636361ddf360e11b81526001600160a01b0385811660048301528083166024830152602085013560448301529192507f00000000000000000000000000000000000000000000000000000000000000009091169063c6c3bbe690606401600060405180830381600087803b158015610bb757600080fd5b505af1158015610bcb573d6000803e3d6000fd5b50505050806001600160a01b0316836001600160a01b03167f93a8393c8cf19d12c7dec41659d1c180332cccdddc65483285d6fb00d10166628460200135604051610c1891815260200190565b60405180910390a3505050565b6000610c3082610c9b565b905080341015610c535760405163cd1c886760e01b815260040160405180910390fd5b610c65610c60823461147a565b610fa3565b6108c381610fd6565b6000546001600160a01b0316331461076c5760405163118cdaa760e01b8152336004820152602401610742565b6000670de0b6b3a764000060035483610cb4919061148d565b6106b991906114a4565b6000610cca8383610df0565b6001600160a01b0381166000908152600560205260409020909150610cf0838583611508565b508060068484604051610d04929190611381565b90815260405190819003602001812080546001600160a01b039384166001600160a01b0319909116179055908216907f89e2b56dfb4365b59dc3a37aaf819ce4937e48be6ab23686edcecacf0124ae0390610d629086908690611391565b60405180910390a292915050565b600180546001600160a01b031916905561063081611010565b604080516001600160a01b038416602482015260448082018490528251808303909101815260649091019091526020810180517bffffffffffffffffffffffffffffffffffffffffffffffffffffffff1663a9059cbb60e01b179052610755908490611060565b6000818103610e1257604051631662e66b60e01b815260040160405180910390fd5b6040518060400160405280601d81526020017f496d6d757461626c655f526174696e67735f62795f474d5f45425f4d420000008152508383604051602001610e5c939291906115c9565b60408051601f1981840301815291905280516020909101209392505050565b6000610e8a610b38838061142c565b604051636361ddf360e11b81526001600160a01b0385811660048301528083166024830152602085013560448301529192507f00000000000000000000000000000000000000000000000000000000000000009091169063c6c3bbe690606401600060405180830381600087803b158015610f0457600080fd5b505af1158015610f18573d6000803e3d6000fd5b50505050806001600160a01b0316836001600160a01b03167f4b713de7cd2c27b9508eb36ff702536841b4eac8273c0683243fde092ff5a0bd8460200135604051610c1891815260200190565b600060068383604051610f79929190611381565b908152604051908190036020019020546001600160a01b03169050806106b9576108d38383610cbe565b801561063057604051339082156108fc029083906000818181858888f193505050501580156108c3573d6000803e3d6000fd5b6004546040516001600160a01b039091169082156108fc029083906000818181858888f193505050501580156108c3573d6000803e3d6000fd5b600080546001600160a01b038381166001600160a01b0319831681178455604051919092169283917f8be0079c531659141344cd1fd0a4f28419497f9722a3daafe3b4186f6b6457e09190a35050565b600080602060008451602086016000885af180611083576040513d6000823e3d81fd5b50506000513d9150811561109b5780600114156110a8565b6001600160a01b0384163b155b156110d157604051635274afe760e01b81526001600160a01b0385166004820152602401610742565b50505050565b80356001600160a01b03811681146110ee57600080fd5b919050565b60006020828403121561110557600080fd5b6108d3826110d7565b60005b83811015611129578181015183820152602001611111565b50506000910152565b602081526000825180602084015261115181604085016020870161110e565b601f01601f19169190910160400192915050565b60006020828403121561117757600080fd5b813567ffffffffffffffff81111561118e57600080fd5b8201604081850312156108d357600080fd5b6000602082840312156111b257600080fd5b813580151581146108d357600080fd5b6000602082840312156111d457600080fd5b5035919050565b600080602083850312156111ee57600080fd5b823567ffffffffffffffff8082111561120657600080fd5b818501915085601f83011261121a57600080fd5b81358181111561122957600080fd5b86602082850101111561123b57600080fd5b60209290920196919550909350505050565b6000806040838503121561126057600080fd5b611269836110d7565b9150611277602084016110d7565b90509250929050565b634e487b7160e01b600052604160045260246000fd5b6000602082840312156112a857600080fd5b813567ffffffffffffffff808211156112c057600080fd5b818401915084601f8301126112d457600080fd5b8135818111156112e6576112e6611280565b604051601f8201601f19908116603f0116810190838211818310171561130e5761130e611280565b8160405282815287602084870101111561132757600080fd5b826020860160208301376000928101602001929092525095945050505050565b600181811c9082168061135b57607f821691505b60208210810361137b57634e487b7160e01b600052602260045260246000fd5b50919050565b8183823760009101908152919050565b60208152816020820152818360408301376000818301604090810191909152601f909201601f19160101919050565b6000602082840312156113d257600080fd5b5051919050565b634e487b7160e01b600052601160045260246000fd5b808201808211156106b9576106b96113d9565b634e487b7160e01b600052601260045260246000fd5b60008261142757611427611402565b500690565b6000808335601e1984360301811261144357600080fd5b83018035915067ffffffffffffffff82111561145e57600080fd5b60200191503681900382131561147357600080fd5b9250929050565b818103818111156106b9576106b96113d9565b80820281158282048414176106b9576106b96113d9565b6000826114b3576114b3611402565b500490565b601f821115610755576000816000526020600020601f850160051c810160208610156114e15750805b601f850160051c820191505b81811015611500578281556001016114ed565b505050505050565b67ffffffffffffffff83111561152057611520611280565b6115348361152e8354611347565b836114b8565b6000601f84116001811461156857600085156115505750838201355b600019600387901b1c1916600186901b1783556115c2565b600083815260209020601f19861690835b828110156115995786850135825560209485019460019092019101611579565b50868210156115b65760001960f88860031b161c19848701351681555b505060018560011b0183555b5050505050565b600084516115db81846020890161110e565b820183858237600093019283525090939250505056fea164736f6c6343000816000a",
  "devdoc": {
    "author": "immutable-ratings",
    "errors": {
      "OwnableInvalidOwner(address)": [
        {
          "details": "The owner is not a valid owner account. (eg. `address(0)`)"
        }
      ],
      "OwnableUnauthorizedAccount(address)": [
        {
          "details": "The caller account is not authorized to perform an operation."
        }
      ],
      "ReentrancyGuardReentrantCall()": [
        {
          "details": "Unauthorized reentrant call."
        }
      ],
      "SafeERC20FailedOperation(address)": [
        {
          "details": "An operation with an ERC-20 token failed."
        }
      ]
    },
    "kind": "dev",
    "methods": {
      "acceptOwnership()": {
        "details": "The new owner accepts the ownership transfer."
      },
      "constructor": {
        "params": {
          "_receiver": "The address of the fee receiver",
          "_tokenDown": "The address of the TDN token",
          "_tokenUp": "The address of the TUP token"
        }
      },
      "createDownRating((string,uint256))": {
        "params": {
          "rating": "The rating to create"
        }
      },
      "createMarket(string)": {
        "params": {
          "url": "The URL for the market"
        }
      },
      "createUpRating((string,uint256))": {
        "params": {
          "rating": "The rating to create"
        }
      },
      "getMarketAddress(string)": {
        "params": {
          "url": "The URL for the market"
        },
        "returns": {
          "_0": "marketAddress The address of the created market"
        }
      },
      "getUserRatings(address)": {
        "params": {
          "user": "The address of the user"
        },
        "returns": {
          "total": "The total number of ratings"
        }
      },
      "owner()": {
        "details": "Returns the address of the current owner."
      },
      "pendingOwner()": {
        "details": "Returns the address of the pending owner."
      },
      "previewPayment(uint256)": {
        "params": {
          "amount": "The amount of tokens to rate"
        },
        "returns": {
          "_0": "price The price of the rating"
        }
      },
      "recoverERC20(address,address)": {
        "params": {
          "recipient": "The address of the recipient",
          "tokenAddress": "The address of the token to recover"
        }
      },
      "renounceOwnership()": {
        "details": "Leaves the contract without owner. It will not be possible to call `onlyOwner` functions. Can only be called by the current owner. NOTE: Renouncing ownership will leave the contract without an owner, thereby disabling any functionality that is only available to the owner."
      },
      "setIsPaused(bool)": {
        "params": {
          "_isPaused": "Whether to pause the contract"
        }
      },
      "setReceiver(address)": {
        "params": {
          "_receiver": "The address of the fee receiver"
        }
      },
      "transferOwnership(address)": {
        "details": "Starts the ownership transfer of the contract to a new account. Replaces the pending transfer if there is one. Can only be called by the current owner. Setting `newOwner` to the zero address is allowed; this can be used to cancel an initiated ownership transfer."
      }
    },
    "stateVariables": {
      "MIN_RATING_AMOUNT": {
        "details": "The minimum amount of tokens that can be rated"
      },
      "SEED": {
        "details": "Seed for market creation"
      },
      "VERSION": {
        "details": "This contract is immutable and non-upgradeable. Further versions of this contract will be deployed independently."
      },
      "isPaused": {
        "details": "Whether the contract is paused"
      },
      "marketToUrl": {
        "details": "Mapping of active markets to their URLs"
      },
      "ratingPrice": {
        "details": "The price of a rating in ether"
      },
      "receiver": {
        "details": "Address of the fee receiver"
      },
      "tokenDown": {
        "details": "The TDN token. Represents downvotes."
      },
      "tokenUp": {
        "details": "The TUP token. Represents upvotes."
      },
      "urlToMarket": {
        "details": "Mapping of URLs to their markets"
      }
    },
    "title": "Immutable Ratings",
    "version": 1
  },
  "userdoc": {
    "kind": "user",
    "methods": {
      "createDownRating((string,uint256))": {
        "notice": "Creates a down rating for a single market"
      },
      "createMarket(string)": {
        "notice": "Creates a new market for a URL"
      },
      "createUpRating((string,uint256))": {
        "notice": "Creates an up rating for a single market"
      },
      "getMarketAddress(string)": {
        "notice": "Gets the market address for a URL"
      },
      "getUserRatings(address)": {
        "notice": "Returns the total number of immutables ratings (IRs) for a user"
      },
      "previewPayment(uint256)": {
        "notice": "Preview the payment for a rating"
      },
      "recoverERC20(address,address)": {
        "notice": "Recovers ERC20 tokens from the contract"
      },
      "setIsPaused(bool)": {
        "notice": "Pauses or unpauses the contract"
      },
      "setReceiver(address)": {
        "notice": "Sets the fee receiver address"
      }
    },
    "notice": "Core controller contract for the Immutable Ratings platform",
    "version": 1
  },
  "storageLayout": {
    "storage": [
      {
        "astId": 387,
        "contract": "contracts/ImmutableRatings.sol:ImmutableRatings",
        "label": "_owner",
        "offset": 0,
        "slot": "0",
        "type": "t_address"
      },
      {
        "astId": 535,
        "contract": "contracts/ImmutableRatings.sol:ImmutableRatings",
        "label": "_pendingOwner",
        "offset": 0,
        "slot": "1",
        "type": "t_address"
      },
      {
        "astId": 1908,
        "contract": "contracts/ImmutableRatings.sol:ImmutableRatings",
        "label": "_status",
        "offset": 0,
        "slot": "2",
        "type": "t_uint256"
      },
      {
        "astId": 2050,
        "contract": "contracts/ImmutableRatings.sol:ImmutableRatings",
        "label": "ratingPrice",
        "offset": 0,
        "slot": "3",
        "type": "t_uint256"
      },
      {
        "astId": 2053,
        "contract": "contracts/ImmutableRatings.sol:ImmutableRatings",
        "label": "receiver",
        "offset": 0,
        "slot": "4",
        "type": "t_address"
      },
      {
        "astId": 2057,
        "contract": "contracts/ImmutableRatings.sol:ImmutableRatings",
        "label": "isPaused",
        "offset": 20,
        "slot": "4",
        "type": "t_bool"
      },
      {
        "astId": 2062,
        "contract": "contracts/ImmutableRatings.sol:ImmutableRatings",
        "label": "marketToUrl",
        "offset": 0,
        "slot": "5",
        "type": "t_mapping(t_address,t_string_storage)"
      },
      {
        "astId": 2067,
        "contract": "contracts/ImmutableRatings.sol:ImmutableRatings",
        "label": "urlToMarket",
        "offset": 0,
        "slot": "6",
        "type": "t_mapping(t_string_memory_ptr,t_address)"
      }
    ],
    "types": {
      "t_address": {
        "encoding": "inplace",
        "label": "address",
        "numberOfBytes": "20"
      },
      "t_bool": {
        "encoding": "inplace",
        "label": "bool",
        "numberOfBytes": "1"
      },
      "t_mapping(t_address,t_string_storage)": {
        "encoding": "mapping",
        "key": "t_address",
        "label": "mapping(address => string)",
        "numberOfBytes": "32",
        "value": "t_string_storage"
      },
      "t_mapping(t_string_memory_ptr,t_address)": {
        "encoding": "mapping",
        "key": "t_string_memory_ptr",
        "label": "mapping(string => address)",
        "numberOfBytes": "32",
        "value": "t_address"
      },
      "t_string_memory_ptr": {
        "encoding": "bytes",
        "label": "string",
        "numberOfBytes": "32"
      },
      "t_string_storage": {
        "encoding": "bytes",
        "label": "string",
        "numberOfBytes": "32"
      },
      "t_uint256": {
        "encoding": "inplace",
        "label": "uint256",
        "numberOfBytes": "32"
      }
    }
  }
}