{
  "address": "0xa7F2e133604A663395d7E4f008faCB94c097DcB3",
  "abi": [
    {
      "inputs": [
        {
          "internalType": "address",
          "name": "_tokenUp",
          "type": "address"
        },
        {
          "internalType": "address",
          "name": "_tokenDown",
          "type": "address"
        },
        {
          "internalType": "address",
          "name": "_receiver",
          "type": "address"
        }
      ],
      "stateMutability": "nonpayable",
      "type": "constructor"
    },
    {
      "inputs": [],
      "name": "AccessControlBadConfirmation",
      "type": "error"
    },
    {
      "inputs": [
        {
          "internalType": "address",
          "name": "account",
          "type": "address"
        },
        {
          "internalType": "bytes32",
          "name": "neededRole",
          "type": "bytes32"
        }
      ],
      "name": "AccessControlUnauthorizedAccount",
      "type": "error"
    },
    {
      "inputs": [],
      "name": "EmptyURL",
      "type": "error"
    },
    {
      "inputs": [],
      "name": "InsufficientPayment",
      "type": "error"
    },
    {
      "inputs": [],
      "name": "InvalidRatingAmount",
      "type": "error"
    },
    {
      "inputs": [
        {
          "internalType": "string",
          "name": "url",
          "type": "string"
        }
      ],
      "name": "MarketAlreadyExists",
      "type": "error"
    },
    {
      "inputs": [
        {
          "internalType": "string",
          "name": "url",
          "type": "string"
        }
      ],
      "name": "MarketDoesNotExist",
      "type": "error"
    },
    {
      "inputs": [],
      "name": "ReentrancyGuardReentrantCall",
      "type": "error"
    },
    {
      "anonymous": false,
      "inputs": [
        {
          "indexed": true,
          "internalType": "address",
          "name": "marketAddress",
          "type": "address"
        },
        {
          "indexed": false,
          "internalType": "string",
          "name": "url",
          "type": "string"
        }
      ],
      "name": "MarketCreated",
      "type": "event"
    },
    {
      "anonymous": false,
      "inputs": [
        {
          "indexed": true,
          "internalType": "address",
          "name": "user",
          "type": "address"
        },
        {
          "indexed": true,
          "internalType": "address",
          "name": "market",
          "type": "address"
        },
        {
          "indexed": false,
          "internalType": "uint256",
          "name": "amount",
          "type": "uint256"
        }
      ],
      "name": "RatingDownCreated",
      "type": "event"
    },
    {
      "anonymous": false,
      "inputs": [
        {
          "indexed": true,
          "internalType": "address",
          "name": "user",
          "type": "address"
        },
        {
          "indexed": true,
          "internalType": "address",
          "name": "market",
          "type": "address"
        },
        {
          "indexed": false,
          "internalType": "uint256",
          "name": "amount",
          "type": "uint256"
        }
      ],
      "name": "RatingUpCreated",
      "type": "event"
    },
    {
      "anonymous": false,
      "inputs": [
        {
          "indexed": true,
          "internalType": "bytes32",
          "name": "role",
          "type": "bytes32"
        },
        {
          "indexed": true,
          "internalType": "bytes32",
          "name": "previousAdminRole",
          "type": "bytes32"
        },
        {
          "indexed": true,
          "internalType": "bytes32",
          "name": "newAdminRole",
          "type": "bytes32"
        }
      ],
      "name": "RoleAdminChanged",
      "type": "event"
    },
    {
      "anonymous": false,
      "inputs": [
        {
          "indexed": true,
          "internalType": "bytes32",
          "name": "role",
          "type": "bytes32"
        },
        {
          "indexed": true,
          "internalType": "address",
          "name": "account",
          "type": "address"
        },
        {
          "indexed": true,
          "internalType": "address",
          "name": "sender",
          "type": "address"
        }
      ],
      "name": "RoleGranted",
      "type": "event"
    },
    {
      "anonymous": false,
      "inputs": [
        {
          "indexed": true,
          "internalType": "bytes32",
          "name": "role",
          "type": "bytes32"
        },
        {
          "indexed": true,
          "internalType": "address",
          "name": "account",
          "type": "address"
        },
        {
          "indexed": true,
          "internalType": "address",
          "name": "sender",
          "type": "address"
        }
      ],
      "name": "RoleRevoked",
      "type": "event"
    },
    {
      "inputs": [],
      "name": "DEFAULT_ADMIN_ROLE",
      "outputs": [
        {
          "internalType": "bytes32",
          "name": "",
          "type": "bytes32"
        }
      ],
      "stateMutability": "view",
      "type": "function"
    },
    {
      "inputs": [],
      "name": "MIN_RATING_AMOUNT",
      "outputs": [
        {
          "internalType": "uint256",
          "name": "",
          "type": "uint256"
        }
      ],
      "stateMutability": "view",
      "type": "function"
    },
    {
      "inputs": [],
      "name": "SEED",
      "outputs": [
        {
          "internalType": "string",
          "name": "",
          "type": "string"
        }
      ],
      "stateMutability": "view",
      "type": "function"
    },
    {
      "inputs": [
        {
          "components": [
            {
              "internalType": "string",
              "name": "url",
              "type": "string"
            },
            {
              "internalType": "uint256",
              "name": "amount",
              "type": "uint256"
            }
          ],
          "internalType": "struct ImmutableRatings.MarketRating",
          "name": "rating",
          "type": "tuple"
        }
      ],
      "name": "createDownRating",
      "outputs": [],
      "stateMutability": "payable",
      "type": "function"
    },
    {
      "inputs": [
        {
          "internalType": "string",
          "name": "url",
          "type": "string"
        }
      ],
      "name": "createMarket",
      "outputs": [],
      "stateMutability": "nonpayable",
      "type": "function"
    },
    {
      "inputs": [
        {
          "components": [
            {
              "internalType": "string",
              "name": "url",
              "type": "string"
            },
            {
              "internalType": "uint256",
              "name": "amount",
              "type": "uint256"
            }
          ],
          "internalType": "struct ImmutableRatings.MarketRating[]",
          "name": "upRatings",
          "type": "tuple[]"
        },
        {
          "components": [
            {
              "internalType": "string",
              "name": "url",
              "type": "string"
            },
            {
              "internalType": "uint256",
              "name": "amount",
              "type": "uint256"
            }
          ],
          "internalType": "struct ImmutableRatings.MarketRating[]",
          "name": "downRatings",
          "type": "tuple[]"
        }
      ],
      "name": "createRatings",
      "outputs": [],
      "stateMutability": "payable",
      "type": "function"
    },
    {
      "inputs": [
        {
          "components": [
            {
              "internalType": "string",
              "name": "url",
              "type": "string"
            },
            {
              "internalType": "uint256",
              "name": "amount",
              "type": "uint256"
            }
          ],
          "internalType": "struct ImmutableRatings.MarketRating",
          "name": "rating",
          "type": "tuple"
        }
      ],
      "name": "createUpRating",
      "outputs": [],
      "stateMutability": "payable",
      "type": "function"
    },
    {
      "inputs": [
        {
          "internalType": "string",
          "name": "url",
          "type": "string"
        }
      ],
      "name": "getMarketAddress",
      "outputs": [
        {
          "internalType": "address",
          "name": "",
          "type": "address"
        }
      ],
      "stateMutability": "pure",
      "type": "function"
    },
    {
      "inputs": [
        {
          "internalType": "bytes32",
          "name": "role",
          "type": "bytes32"
        }
      ],
      "name": "getRoleAdmin",
      "outputs": [
        {
          "internalType": "bytes32",
          "name": "",
          "type": "bytes32"
        }
      ],
      "stateMutability": "view",
      "type": "function"
    },
    {
      "inputs": [
        {
          "internalType": "address",
          "name": "user",
          "type": "address"
        }
      ],
      "name": "getUserRatings",
      "outputs": [
        {
          "internalType": "uint256",
          "name": "total",
          "type": "uint256"
        }
      ],
      "stateMutability": "view",
      "type": "function"
    },
    {
      "inputs": [
        {
          "internalType": "bytes32",
          "name": "role",
          "type": "bytes32"
        },
        {
          "internalType": "address",
          "name": "account",
          "type": "address"
        }
      ],
      "name": "grantRole",
      "outputs": [],
      "stateMutability": "nonpayable",
      "type": "function"
    },
    {
      "inputs": [
        {
          "internalType": "bytes32",
          "name": "role",
          "type": "bytes32"
        },
        {
          "internalType": "address",
          "name": "account",
          "type": "address"
        }
      ],
      "name": "hasRole",
      "outputs": [
        {
          "internalType": "bool",
          "name": "",
          "type": "bool"
        }
      ],
      "stateMutability": "view",
      "type": "function"
    },
    {
      "inputs": [
        {
          "internalType": "address",
          "name": "market",
          "type": "address"
        }
      ],
      "name": "marketToUrl",
      "outputs": [
        {
          "internalType": "string",
          "name": "url",
          "type": "string"
        }
      ],
      "stateMutability": "view",
      "type": "function"
    },
    {
      "inputs": [
        {
          "internalType": "uint256",
          "name": "amount",
          "type": "uint256"
        }
      ],
      "name": "previewPayment",
      "outputs": [
        {
          "internalType": "uint256",
          "name": "",
          "type": "uint256"
        }
      ],
      "stateMutability": "view",
      "type": "function"
    },
    {
      "inputs": [],
      "name": "ratingPrice",
      "outputs": [
        {
          "internalType": "uint256",
          "name": "",
          "type": "uint256"
        }
      ],
      "stateMutability": "view",
      "type": "function"
    },
    {
      "inputs": [],
      "name": "receiver",
      "outputs": [
        {
          "internalType": "address",
          "name": "",
          "type": "address"
        }
      ],
      "stateMutability": "view",
      "type": "function"
    },
    {
      "inputs": [
        {
          "internalType": "bytes32",
          "name": "role",
          "type": "bytes32"
        },
        {
          "internalType": "address",
          "name": "callerConfirmation",
          "type": "address"
        }
      ],
      "name": "renounceRole",
      "outputs": [],
      "stateMutability": "nonpayable",
      "type": "function"
    },
    {
      "inputs": [
        {
          "internalType": "bytes32",
          "name": "role",
          "type": "bytes32"
        },
        {
          "internalType": "address",
          "name": "account",
          "type": "address"
        }
      ],
      "name": "revokeRole",
      "outputs": [],
      "stateMutability": "nonpayable",
      "type": "function"
    },
    {
      "inputs": [
        {
          "internalType": "address",
          "name": "_receiver",
          "type": "address"
        }
      ],
      "name": "setReceiver",
      "outputs": [],
      "stateMutability": "nonpayable",
      "type": "function"
    },
    {
      "inputs": [
        {
          "internalType": "bytes4",
          "name": "interfaceId",
          "type": "bytes4"
        }
      ],
      "name": "supportsInterface",
      "outputs": [
        {
          "internalType": "bool",
          "name": "",
          "type": "bool"
        }
      ],
      "stateMutability": "view",
      "type": "function"
    },
    {
      "inputs": [],
      "name": "tokenDown",
      "outputs": [
        {
          "internalType": "contract TDN",
          "name": "",
          "type": "address"
        }
      ],
      "stateMutability": "view",
      "type": "function"
    },
    {
      "inputs": [],
      "name": "tokenUp",
      "outputs": [
        {
          "internalType": "contract TUP",
          "name": "",
          "type": "address"
        }
      ],
      "stateMutability": "view",
      "type": "function"
    },
    {
      "inputs": [
        {
          "internalType": "string",
          "name": "url",
          "type": "string"
        }
      ],
      "name": "urlToMarket",
      "outputs": [
        {
          "internalType": "address",
          "name": "market",
          "type": "address"
        }
      ],
      "stateMutability": "view",
      "type": "function"
    },
    {
      "inputs": [
        {
          "internalType": "address",
          "name": "user",
          "type": "address"
        }
      ],
      "name": "userRatingCount",
      "outputs": [
        {
          "internalType": "uint256",
          "name": "up",
          "type": "uint256"
        },
        {
          "internalType": "uint256",
          "name": "down",
          "type": "uint256"
        }
      ],
      "stateMutability": "view",
      "type": "function"
    }
  ],
  "transactionHash": "0x5a305713dcce235f38b6e7c902e348ad473375441b50c4a3db0a0689e860f177",
  "args": [
    "0x9E8765f0958F7FafD5c15F4F24E7e0a9c03f61e1",
    "0x14932F95a27364e9d27E899EBA1f6F54C11429b4",
    "0x30e7120ce8c0ABA197f1C4EccF2F4E1e1C75ab1d"
  ],
  "numDeployments": 1,
  "solcInputHash": "0b29e335d33cebce2e63b63f42d519c4",
  "bytecode": "0x60c060405264104c533c006002553480156200001a57600080fd5b506040516200174f3803806200174f8339810160408190526200003d916200014a565b600180556200004e6000336200007e565b506001600160a01b0392831660805290821660a052600380546001600160a01b0319169190921617905562000194565b6000828152602081815260408083206001600160a01b038516845290915281205460ff1662000123576000838152602081815260408083206001600160a01b03861684529091529020805460ff19166001179055620000da3390565b6001600160a01b0316826001600160a01b0316847f2f8788117e7eff1d82e926ec794901d17c78024a50270940304540a733656f0d60405160405180910390a450600162000127565b5060005b92915050565b80516001600160a01b03811681146200014557600080fd5b919050565b6000806000606084860312156200016057600080fd5b6200016b846200012d565b92506200017b602085016200012d565b91506200018b604085016200012d565b90509250925092565b60805160a051611587620001c8600039600081816104490152610bf40152600081816103990152610a8801526115876000f3fe60806040526004361061018b5760003560e01c80636bfc5c6e116100d6578063a217fddf1161007f578063f50336f911610059578063f50336f914610514578063f7260d3e14610534578063fbd8cc4c1461055457600080fd5b8063a217fddf146104cc578063c4baaa9f146104e1578063d547741f146104f457600080fd5b80639c25cc62116100b05780639c25cc62146104375780639f8472d41461046b578063a00c582e146104ac57600080fd5b80636bfc5c6e14610387578063718da7ee146103d357806391d14854146103f357600080fd5b8063280fa69c1161013857806350a1a8681161011257806350a1a868146102fe57806354888f551461031e578063656f35221461033e57600080fd5b8063280fa69c146102ab5780632f2ff15d146102be57806336568abe146102de57600080fd5b806317da760a1161016957806317da760a1461023b57806323da931714610266578063248a9ca31461027b57600080fd5b806301ffc9a71461019057806303994dc5146101c55780630edc4737146101f2575b600080fd5b34801561019c57600080fd5b506101b06101ab366004610fa4565b61056a565b60405190151581526020015b60405180910390f35b3480156101d157600080fd5b506101e56101e0366004610fea565b6105a1565b6040516101bc9190611029565b3480156101fe57600080fd5b506101e56040518060400160405280601181526020017f696d6d757461626c655f726174696e677300000000000000000000000000000081525081565b34801561024757600080fd5b50610258683635c9adc5dea0000081565b6040519081526020016101bc565b61027961027436600461105c565b61063b565b005b34801561028757600080fd5b50610258610296366004611097565b60009081526020819052604090206001015490565b6102796102b93660046110fc565b6106c2565b3480156102ca57600080fd5b506102796102d9366004611168565b61082a565b3480156102ea57600080fd5b506102796102f9366004611168565b61084f565b34801561030a57600080fd5b50610258610319366004611097565b610887565b34801561032a57600080fd5b50610279610339366004611194565b610892565b34801561034a57600080fd5b50610372610359366004610fea565b6006602052600090815260409020805460019091015482565b604080519283526020830191909152016101bc565b34801561039357600080fd5b506103bb7f000000000000000000000000000000000000000000000000000000000000000081565b6040516001600160a01b0390911681526020016101bc565b3480156103df57600080fd5b506102796103ee366004610fea565b6108fd565b3480156103ff57600080fd5b506101b061040e366004611168565b6000918252602082815260408084206001600160a01b0393909316845291905290205460ff1690565b34801561044357600080fd5b506103bb7f000000000000000000000000000000000000000000000000000000000000000081565b34801561047757600080fd5b506103bb61048636600461121c565b80516020818301810180516005825292820191909301209152546001600160a01b031681565b3480156104b857600080fd5b506103bb6104c7366004611194565b610938565b3480156104d857600080fd5b50610258600081565b6102796104ef36600461105c565b61094b565b34801561050057600080fd5b5061027961050f366004611168565b61098d565b34801561052057600080fd5b5061025861052f366004610fea565b6109b2565b34801561054057600080fd5b506003546103bb906001600160a01b031681565b34801561056057600080fd5b5061025860025481565b60006001600160e01b03198216637965db0b60e01b148061059b57506301ffc9a760e01b6001600160e01b03198316145b92915050565b600460205260009081526040902080546105ba906112cd565b80601f01602080910402602001604051908101604052809291908181526020018280546105e6906112cd565b80156106335780601f1061060857610100808354040283529160200191610633565b820191906000526020600020905b81548152906001019060200180831161061657829003601f168201915b505050505081565b6106436109db565b61064c81610a05565b61065581610a48565b336000908152600660209081526040822080549184013592909161067a90849061131d565b9091555061068d90506020820135610b2e565b3410156106ad5760405163cd1c886760e01b815260040160405180910390fd5b6106b634610b7b565b6106bf60018055565b50565b6106ca6109db565b60008080855b8082101561072d57368888848181106106eb576106eb611330565b90506020028101906106fd9190611346565b905061070881610a05565b61071181610a48565b61071f60208201358661131d565b9450508160010191506106d0565b6000855b8082101561078e573688888481811061074c5761074c611330565b905060200281019061075e9190611346565b905061076981610a05565b61077281610bb9565b61078060208201358761131d565b955050816001019150610731565b6107a061079b868861131d565b610b2e565b3410156107c05760405163cd1c886760e01b815260040160405180910390fd5b33600090815260066020526040812080548892906107df90849061131d565b9091555050336000908152600660205260408120600101805487929061080690849061131d565b90915550610815905034610b7b565b50505050505061082460018055565b50505050565b60008281526020819052604090206001015461084581610c92565b6108248383610c9c565b6001600160a01b03811633146108785760405163334bd91960e11b815260040160405180910390fd5b6108828282610d46565b505050565b600061059b82610b2e565b60006001600160a01b0316600583836040516108af929190611366565b908152604051908190036020019020546001600160a01b0316146108f35781816040516337afdd7160e01b81526004016108ea929190611376565b60405180910390fd5b6108828282610dc9565b600061090881610c92565b506003805473ffffffffffffffffffffffffffffffffffffffff19166001600160a01b0392909216919091179055565b60006109448383610e88565b9392505050565b6109536109db565b61095c81610a05565b61096581610bb9565b336000908152600660209081526040822060010180549184013592909161067a90849061131d565b6000828152602081905260409020600101546109a881610c92565b6108248383610d46565b6001600160a01b03811660009081526006602052604081206001810154905461059b919061131d565b6002600154036109fe57604051633ee5aeb560e01b815260040160405180910390fd5b6002600155565b60208101351580610a2a5750610a27670de0b6b3a764000060208301356113bb565b15155b156106bf5760405163a31fbaaf60e01b815260040160405180910390fd5b6000610a5c610a5783806113cf565b610f13565b6040516340c10f1960e01b81526001600160a01b038083166004830152602085013560248301529192507f0000000000000000000000000000000000000000000000000000000000000000909116906340c10f1990604401600060405180830381600087803b158015610ace57600080fd5b505af1158015610ae2573d6000803e3d6000fd5b505060405160208086013582526001600160a01b03851693503392507f93a8393c8cf19d12c7dec41659d1c180332cccdddc65483285d6fb00d101666291015b60405180910390a35050565b6000683635c9adc5dea00000821015610b5a5760405163a31fbaaf60e01b815260040160405180910390fd5b670de0b6b3a764000060025483610b719190611416565b61059b919061142d565b6003546040516001600160a01b039091169082156108fc029083906000818181858888f19350505050158015610bb5573d6000803e3d6000fd5b5050565b6000610bc8610a5783806113cf565b6040516340c10f1960e01b81526001600160a01b038083166004830152602085013560248301529192507f0000000000000000000000000000000000000000000000000000000000000000909116906340c10f1990604401600060405180830381600087803b158015610c3a57600080fd5b505af1158015610c4e573d6000803e3d6000fd5b505060405160208086013582526001600160a01b03851693503392507f4b713de7cd2c27b9508eb36ff702536841b4eac8273c0683243fde092ff5a0bd9101610b22565b6106bf8133610f51565b6000828152602081815260408083206001600160a01b038516845290915281205460ff16610d3e576000838152602081815260408083206001600160a01b03861684529091529020805460ff19166001179055610cf63390565b6001600160a01b0316826001600160a01b0316847f2f8788117e7eff1d82e926ec794901d17c78024a50270940304540a733656f0d60405160405180910390a450600161059b565b50600061059b565b6000828152602081815260408083206001600160a01b038516845290915281205460ff1615610d3e576000838152602081815260408083206001600160a01b0386168085529252808320805460ff1916905551339286917ff6391f5c32d9c69d2a47ea670b442974b53935d1edc7fd64eb21e047a839171b9190a450600161059b565b6000610dd58383610e88565b6001600160a01b0381166000908152600460205260409020909150610dfb838583611491565b508060058484604051610e0f929190611366565b90815260405190819003602001812080546001600160a01b0393841673ffffffffffffffffffffffffffffffffffffffff19909116179055908216907f89e2b56dfb4365b59dc3a37aaf819ce4937e48be6ab23686edcecacf0124ae0390610e7a9086908690611376565b60405180910390a292915050565b6000818103610eaa57604051631662e66b60e01b815260040160405180910390fd5b6040518060400160405280601181526020017f696d6d757461626c655f726174696e67730000000000000000000000000000008152508383604051602001610ef493929190611552565b60408051601f1981840301815291905280516020909101209392505050565b600060058383604051610f27929190611366565b908152604051908190036020019020546001600160a01b031690508061059b576109448383610dc9565b6000828152602081815260408083206001600160a01b038516845290915290205460ff16610bb55760405163e2517d3f60e01b81526001600160a01b0382166004820152602481018390526044016108ea565b600060208284031215610fb657600080fd5b81356001600160e01b03198116811461094457600080fd5b80356001600160a01b0381168114610fe557600080fd5b919050565b600060208284031215610ffc57600080fd5b61094482610fce565b60005b83811015611020578181015183820152602001611008565b50506000910152565b6020815260008251806020840152611048816040850160208701611005565b601f01601f19169190910160400192915050565b60006020828403121561106e57600080fd5b813567ffffffffffffffff81111561108557600080fd5b82016040818503121561094457600080fd5b6000602082840312156110a957600080fd5b5035919050565b60008083601f8401126110c257600080fd5b50813567ffffffffffffffff8111156110da57600080fd5b6020830191508360208260051b85010111156110f557600080fd5b9250929050565b6000806000806040858703121561111257600080fd5b843567ffffffffffffffff8082111561112a57600080fd5b611136888389016110b0565b9096509450602087013591508082111561114f57600080fd5b5061115c878288016110b0565b95989497509550505050565b6000806040838503121561117b57600080fd5b8235915061118b60208401610fce565b90509250929050565b600080602083850312156111a757600080fd5b823567ffffffffffffffff808211156111bf57600080fd5b818501915085601f8301126111d357600080fd5b8135818111156111e257600080fd5b8660208285010111156111f457600080fd5b60209290920196919550909350505050565b634e487b7160e01b600052604160045260246000fd5b60006020828403121561122e57600080fd5b813567ffffffffffffffff8082111561124657600080fd5b818401915084601f83011261125a57600080fd5b81358181111561126c5761126c611206565b604051601f8201601f19908116603f0116810190838211818310171561129457611294611206565b816040528281528760208487010111156112ad57600080fd5b826020860160208301376000928101602001929092525095945050505050565b600181811c908216806112e157607f821691505b60208210810361130157634e487b7160e01b600052602260045260246000fd5b50919050565b634e487b7160e01b600052601160045260246000fd5b8082018082111561059b5761059b611307565b634e487b7160e01b600052603260045260246000fd5b60008235603e1983360301811261135c57600080fd5b9190910192915050565b8183823760009101908152919050565b60208152816020820152818360408301376000818301604090810191909152601f909201601f19160101919050565b634e487b7160e01b600052601260045260246000fd5b6000826113ca576113ca6113a5565b500690565b6000808335601e198436030181126113e657600080fd5b83018035915067ffffffffffffffff82111561140157600080fd5b6020019150368190038213156110f557600080fd5b808202811582820484141761059b5761059b611307565b60008261143c5761143c6113a5565b500490565b601f821115610882576000816000526020600020601f850160051c8101602086101561146a5750805b601f850160051c820191505b8181101561148957828155600101611476565b505050505050565b67ffffffffffffffff8311156114a9576114a9611206565b6114bd836114b783546112cd565b83611441565b6000601f8411600181146114f157600085156114d95750838201355b600019600387901b1c1916600186901b17835561154b565b600083815260209020601f19861690835b828110156115225786850135825560209485019460019092019101611502565b508682101561153f5760001960f88860031b161c19848701351681555b505060018560011b0183555b5050505050565b60008451611564818460208901611005565b820183858237600093019283525090939250505056fea164736f6c6343000816000a",
  "devdoc": {
    "errors": {
      "AccessControlBadConfirmation()": [
        {
          "details": "The caller of a function is not the expected one. NOTE: Don't confuse with {AccessControlUnauthorizedAccount}."
        }
      ],
      "AccessControlUnauthorizedAccount(address,bytes32)": [
        {
          "details": "The `account` is missing a role."
        }
      ],
      "ReentrancyGuardReentrantCall()": [
        {
          "details": "Unauthorized reentrant call."
        }
      ]
    },
    "events": {
      "RoleAdminChanged(bytes32,bytes32,bytes32)": {
        "details": "Emitted when `newAdminRole` is set as ``role``'s admin role, replacing `previousAdminRole` `DEFAULT_ADMIN_ROLE` is the starting admin for all roles, despite {RoleAdminChanged} not being emitted signaling this."
      },
      "RoleGranted(bytes32,address,address)": {
        "details": "Emitted when `account` is granted `role`. `sender` is the account that originated the contract call. This account bears the admin role (for the granted role). Expected in cases where the role was granted using the internal {AccessControl-_grantRole}."
      },
      "RoleRevoked(bytes32,address,address)": {
        "details": "Emitted when `account` is revoked `role`. `sender` is the account that originated the contract call:   - if using `revokeRole`, it is the admin role bearer   - if using `renounceRole`, it is the role bearer (i.e. `account`)"
      }
    },
    "kind": "dev",
    "methods": {
      "createDownRating((string,uint256))": {
        "params": {
          "rating": "The rating to create"
        }
      },
      "createMarket(string)": {
        "params": {
          "url": "The URL for the market"
        }
      },
      "createRatings((string,uint256)[],(string,uint256)[])": {
        "params": {
          "downRatings": "Array of MarketRating structs for downvotes",
          "upRatings": "Array of MarketRating structs for upvotes"
        }
      },
      "createUpRating((string,uint256))": {
        "params": {
          "rating": "The rating to create"
        }
      },
      "getMarketAddress(string)": {
        "params": {
          "url": "The URL for the market"
        },
        "returns": {
          "_0": "marketAddress The address of the created market"
        }
      },
      "getRoleAdmin(bytes32)": {
        "details": "Returns the admin role that controls `role`. See {grantRole} and {revokeRole}. To change a role's admin, use {_setRoleAdmin}."
      },
      "getUserRatings(address)": {
        "params": {
          "user": "The address of the user"
        },
        "returns": {
          "total": "The total number of ratings"
        }
      },
      "grantRole(bytes32,address)": {
        "details": "Grants `role` to `account`. If `account` had not been already granted `role`, emits a {RoleGranted} event. Requirements: - the caller must have ``role``'s admin role. May emit a {RoleGranted} event."
      },
      "hasRole(bytes32,address)": {
        "details": "Returns `true` if `account` has been granted `role`."
      },
      "previewPayment(uint256)": {
        "params": {
          "amount": "The amount of tokens to rate"
        },
        "returns": {
          "_0": "price The price of the rating"
        }
      },
      "renounceRole(bytes32,address)": {
        "details": "Revokes `role` from the calling account. Roles are often managed via {grantRole} and {revokeRole}: this function's purpose is to provide a mechanism for accounts to lose their privileges if they are compromised (such as when a trusted device is misplaced). If the calling account had been revoked `role`, emits a {RoleRevoked} event. Requirements: - the caller must be `callerConfirmation`. May emit a {RoleRevoked} event."
      },
      "revokeRole(bytes32,address)": {
        "details": "Revokes `role` from `account`. If `account` had been granted `role`, emits a {RoleRevoked} event. Requirements: - the caller must have ``role``'s admin role. May emit a {RoleRevoked} event."
      },
      "setReceiver(address)": {
        "params": {
          "_receiver": "The address of the fee receiver"
        }
      },
      "supportsInterface(bytes4)": {
        "details": "See {IERC165-supportsInterface}."
      }
    },
    "stateVariables": {
      "MIN_RATING_AMOUNT": {
        "details": "The minimum amount of tokens that can be rated"
      },
      "SEED": {
        "details": "Seed for market creation"
      },
      "marketToUrl": {
        "details": "Mapping of active markets to their URLs"
      },
      "ratingPrice": {
        "details": "The price of a rating in ether"
      },
      "receiver": {
        "details": "Address of the fee receiver"
      },
      "urlToMarket": {
        "details": "Mapping of URLs to their markets"
      },
      "userRatingCount": {
        "details": "Mapping of users rating counts"
      }
    },
    "version": 1
  },
  "userdoc": {
    "kind": "user",
    "methods": {
      "createDownRating((string,uint256))": {
        "notice": "Creates a down rating for a single market"
      },
      "createMarket(string)": {
        "notice": "Creates a new market for a URL"
      },
      "createRatings((string,uint256)[],(string,uint256)[])": {
        "notice": "Creates ratings for multiple markets"
      },
      "createUpRating((string,uint256))": {
        "notice": "Creates an up rating for a single market"
      },
      "getMarketAddress(string)": {
        "notice": "Gets the market address for a URL"
      },
      "getUserRatings(address)": {
        "notice": "Returns the total number of ratings for a user"
      },
      "previewPayment(uint256)": {
        "notice": "Preview the payment for a rating"
      },
      "setReceiver(address)": {
        "notice": "Sets the fee receiver address"
      }
    },
    "version": 1
  },
  "storageLayout": {
    "storage": [
      {
        "astId": 26,
        "contract": "contracts/ImmutableRatings.sol:ImmutableRatings",
        "label": "_roles",
        "offset": 0,
        "slot": "0",
        "type": "t_mapping(t_bytes32,t_struct(RoleData)21_storage)"
      },
      {
        "astId": 1674,
        "contract": "contracts/ImmutableRatings.sol:ImmutableRatings",
        "label": "_status",
        "offset": 0,
        "slot": "1",
        "type": "t_uint256"
      },
      {
        "astId": 1804,
        "contract": "contracts/ImmutableRatings.sol:ImmutableRatings",
        "label": "ratingPrice",
        "offset": 0,
        "slot": "2",
        "type": "t_uint256"
      },
      {
        "astId": 1807,
        "contract": "contracts/ImmutableRatings.sol:ImmutableRatings",
        "label": "receiver",
        "offset": 0,
        "slot": "3",
        "type": "t_address"
      },
      {
        "astId": 1812,
        "contract": "contracts/ImmutableRatings.sol:ImmutableRatings",
        "label": "marketToUrl",
        "offset": 0,
        "slot": "4",
        "type": "t_mapping(t_address,t_string_storage)"
      },
      {
        "astId": 1817,
        "contract": "contracts/ImmutableRatings.sol:ImmutableRatings",
        "label": "urlToMarket",
        "offset": 0,
        "slot": "5",
        "type": "t_mapping(t_string_memory_ptr,t_address)"
      },
      {
        "astId": 1823,
        "contract": "contracts/ImmutableRatings.sol:ImmutableRatings",
        "label": "userRatingCount",
        "offset": 0,
        "slot": "6",
        "type": "t_mapping(t_address,t_struct(RatingCount)1835_storage)"
      }
    ],
    "types": {
      "t_address": {
        "encoding": "inplace",
        "label": "address",
        "numberOfBytes": "20"
      },
      "t_bool": {
        "encoding": "inplace",
        "label": "bool",
        "numberOfBytes": "1"
      },
      "t_bytes32": {
        "encoding": "inplace",
        "label": "bytes32",
        "numberOfBytes": "32"
      },
      "t_mapping(t_address,t_bool)": {
        "encoding": "mapping",
        "key": "t_address",
        "label": "mapping(address => bool)",
        "numberOfBytes": "32",
        "value": "t_bool"
      },
      "t_mapping(t_address,t_string_storage)": {
        "encoding": "mapping",
        "key": "t_address",
        "label": "mapping(address => string)",
        "numberOfBytes": "32",
        "value": "t_string_storage"
      },
      "t_mapping(t_address,t_struct(RatingCount)1835_storage)": {
        "encoding": "mapping",
        "key": "t_address",
        "label": "mapping(address => struct ImmutableRatings.RatingCount)",
        "numberOfBytes": "32",
        "value": "t_struct(RatingCount)1835_storage"
      },
      "t_mapping(t_bytes32,t_struct(RoleData)21_storage)": {
        "encoding": "mapping",
        "key": "t_bytes32",
        "label": "mapping(bytes32 => struct AccessControl.RoleData)",
        "numberOfBytes": "32",
        "value": "t_struct(RoleData)21_storage"
      },
      "t_mapping(t_string_memory_ptr,t_address)": {
        "encoding": "mapping",
        "key": "t_string_memory_ptr",
        "label": "mapping(string => address)",
        "numberOfBytes": "32",
        "value": "t_address"
      },
      "t_string_memory_ptr": {
        "encoding": "bytes",
        "label": "string",
        "numberOfBytes": "32"
      },
      "t_string_storage": {
        "encoding": "bytes",
        "label": "string",
        "numberOfBytes": "32"
      },
      "t_struct(RatingCount)1835_storage": {
        "encoding": "inplace",
        "label": "struct ImmutableRatings.RatingCount",
        "members": [
          {
            "astId": 1832,
            "contract": "contracts/ImmutableRatings.sol:ImmutableRatings",
            "label": "up",
            "offset": 0,
            "slot": "0",
            "type": "t_uint256"
          },
          {
            "astId": 1834,
            "contract": "contracts/ImmutableRatings.sol:ImmutableRatings",
            "label": "down",
            "offset": 0,
            "slot": "1",
            "type": "t_uint256"
          }
        ],
        "numberOfBytes": "64"
      },
      "t_struct(RoleData)21_storage": {
        "encoding": "inplace",
        "label": "struct AccessControl.RoleData",
        "members": [
          {
            "astId": 18,
            "contract": "contracts/ImmutableRatings.sol:ImmutableRatings",
            "label": "hasRole",
            "offset": 0,
            "slot": "0",
            "type": "t_mapping(t_address,t_bool)"
          },
          {
            "astId": 20,
            "contract": "contracts/ImmutableRatings.sol:ImmutableRatings",
            "label": "adminRole",
            "offset": 0,
            "slot": "1",
            "type": "t_bytes32"
          }
        ],
        "numberOfBytes": "64"
      },
      "t_uint256": {
        "encoding": "inplace",
        "label": "uint256",
        "numberOfBytes": "32"
      }
    }
  }
}